:020000040000FA
:0600000021EF03F01200E5
:020006001200E6
:0600080014EF00F01200ED
:02000E000200EE
:10001000B206000060000000090000005E0600005B
:08002000000F00005400000075
:08002800DACFE4FFE2CFDAFFBA
:10003000E9CFE4FFEACFE4FFF6CFE4FFF7CFE4FF38
:10004000F5CFE4FFF3CFE4FFF4CFE4FFFACFE4FF12
:1000500000EE02F0020EE80403E3EECFE4FFFBD76C
:1000600000EE04F0020EE80403E3EECFE4FFFBD75A
:10007000E652F29460C0E6FF91D9E552E81C8A6E20
:100080000001605109E06051006E016A635100187F
:1000900002E1645101180EE1655166110AE06751F1
:1000A000681103E163C060F001D0606B671F681FD7
:1000B00001D0606B7DD8E55200EE05F0020EE80439
:1000C00003E3E5CFEDFFFBD700EE03F0020EE804FB
:1000D00003E3E5CFEDFFFBD7E5CFFAFFE5CFF4FF74
:1000E000E5CFF3FFE5CFF5FFE5CFF7FFE5CFF6FF6F
:1000F000E5CFEAFFE5CFE9FFE5CFDAFF1100D9CF81
:10010000E6FFE1CFD9FF060EE126D950020FE96ED6
:10011000DACFEAFF680EEE6E690EEE6E7A0EEE6EC4
:10012000EE6A936A8A68BDD9BFD9D950020FE66ECC
:10013000000EDA20E66E4ED8E552E552B5D9190E1A
:100140000001616F626BAFD9D00EE66ECEEC02F0AB
:10015000E5522ED80001606BA7D960C0E6FF1ED91A
:10016000E552E81C8A6E0001602B140EE66EEAEC84
:1001700002F0E552AA0E8A6E140EE66EEAEC02F068
:10018000E55200016051046E056A6351041802E1F2
:100190006451051801E101D0E0D7FFD7060EE15CFC
:1001A00002E2E16AE552E16EE552E7CFD9FF1200C3
:1001B00061C004F062C005F0FF0ED8800456000E46
:1001C000055604C0E6FF05C0E6FFB2EC02F0E552BA
:1001D000E5521200D9CFE6FFE1CFD9FF020EE126AA
:1001E000FD0EDBCFDEFFDBCFDDFFDECFE9FFDDCFB6
:1001F000EAFFEF500DE0DECFE9FFDDCFEAFFEF5081
:10020000E66E10D8E552DF2A010E01E3DB2AEDD7B6
:10021000020EE15C02E2E16AE552E16EE552E7CFEF
:10022000D9FF1200D9CFE6FFE1CFD9FF030EE126B7
:10023000610EF36EFE0EDBCFF4FFF350F45C09E3C6
:10024000FE0EDB507A0805E3FE0EDB509F0FDF6EDB
:1002500002D01A0EDF6EDFCFE9FFEA6AE9BEEA6874
:10026000030EEA02F3CFEAFFE902F3CFE9FFF4500D
:10027000EA26000EE9260F0EEA22EF50E66E60C075
:10028000E6FF9CD8E552E5520001602BDFCFE9FF85
:10029000EA6AE9BEEA68030EEA02F3CFEAFFE9027E
:1002A000F3CFE9FFF450EA26000EE9260F0EEA220A
:1002B000010EE926000EEA22EF50E66E60C0E6FF6E
:1002C0007DD8E552E5520001602BDFCFE9FFEA6AF5
:1002D000E9BEEA68030EEA02F3CFEAFFE902F3CFD0
:1002E000E9FFF450EA26000EE9260F0EEA22020E7C
:1002F000E926000EEA22EF50E66E60C0E6FF5ED807
:10030000E552E5520001602BE66A60C0E6FF56D870
:10031000E552E5520001602B040E6325636F000E69
:100320006421646F030EE15C02E2E16AE552E16E72
:10033000E552E7CFD9FF1200D9CFE6FFE1CFD9FFD1
:10034000020EE126010EDF6EDB6A936A8A68050EF3
:10035000E66E01EC03F0E552400EDF5C04E1DE5294
:10036000010EDD6E04D0DF0402E1010EDB6A010E36
:10037000DB5004E1DF50E824DF6E03D0DF407F0B69
:10038000DF6EDF1C8A6EE3D7020EE15C02E2E16AF7
:10039000E552E16EE552E7CFD9FF1200D9CFE6FF73
:1003A000E1CFD9FFA69EA69CFE0EDB50A96EA680CB
:1003B000A85000D0E552E7CFD9FF1200D9CFE6FF11
:1003C000E1CFD9FFA69EA69CFD0EDB50A86EFE0EC7
:1003D000DB50A96EA68465D8550EA76EAA0EA76E2F
:1003E000A68261D8A6B2FED7A694E552E7CFD9FF80
:1003F0001200D9CFE6FFE1CFD9FF000167516811A4
:100400000CE1FD0EDBCF04F0DB2AFE0EDBCF05F0A6
:1004100001E3DB2A04C060F00BD0FD0EDBCF04F05B
:10042000DB06FE0EDBCF05F001E2DB0604C060F068
:10043000A69EA69CFD0EDB50A96EA680A850046E59
:10044000056A04C0F3FF05C0F4FF00D0E552E7CF12
:10045000D9FF1200D9CFE6FFE1CFD9FFA69EA69C17
:10046000A684FD0EDB50A96EAA6AFB0EDB50A86EB7
:1004700018D8550EA76EAA0EA76EA68214D8A1A8EA
:10048000FED7A198FD0EDBCF04F0DB2AFE0EDBCFFA
:1004900005F001E3DB2A04C060F0E552E7CFD9FFA5
:1004A0001200F29E12001200330E8A6E140EE66ED7
:1004B000EAEC02F0E552CC0E8A6E140EE66EEAEC1F
:0604C00002F0E5521200FB
:0A04C6000E0EF66E000EF76E000E2B
:1004D000F86E0F010900F550596F0900F5505A6F79
:1004E00003E1596701D03DD00900F550546F090070
:1004F000F550556F0900F550566F09000900F55089
:10050000E96E0900F550EA6E090009000900F5508E
:10051000576F0900F550586F09000900F6CF5BFFCF
:10052000F7CF5CFFF8CF5DFF54CFF6FF55CFF7FF55
:1005300056CFF8FF0F01575302E1585307E0090067
:10054000F550EE6E5707F8E25807F9D75BCFF6FF84
:100550005CCFF7FF5DCFF8FF0F015907000E5A5B24
:04056000BFD71200EF
:0C056400D9CFE6FFDACFE6FFE1CFD9FFE8
:10057000E2CFDAFFE652E652FC0EDBCFDEFFDBCF46
:10058000DDFF010EDB50D76EDF50D66EE552E5522F
:0C059000E552E5CFDAFFE7CFD9FF1200FB
:04059C00D9CFE6FFCE
:1005A000DACFE6FFE1CFD9FFE2CFDAFFFD0EDB5075
:1005B0007F0BD56ED76AD66AF294FD0EDBAE02D001
:1005C000F28A01D0F29AD58EE552E5CFDAFFE7CF75
:0405D000D9FF12003D
:0C05D400FF0EE350076EEF0E01D0F30E97
:1005E000E76EE72EF1EF02F00C0E066EE76AE72EDB
:1005F000F7EF02F0062EF6EF02F0072EEFEF02F013
:020600001200E6
:0E060200FF0EE350076E480E01D04C0EE76E5F
:10061000E72EFED7E76AE72EFED7072EF7D70000B2
:020620001200C6
:0E062200600EF36E00EE00F00F0E01D8120015
:10063000EA6002D0EE6AFCD7F350E9601200EE6A7D
:02064000FCD7E5
:0E0642001EEE00F02EEE00F0F86A039C63EC52
:0E06500002F003EC00F07FEC00F0FBD712008C
:02065E001E2854
:100660001E3E2A141C22223E221C3E2A2A3E2828F4
:100670001C2A0C3E083E022E0220223E3E08163E58
:1006800002023E181E3E201E1C221C3E28101E2662
:100690001E3E2816122A24203E203E023E3C023CEA
:1006A0003C0C3C36083630083E262A32000000005A
:0206B000000048
:0906B20000190000000100000025
:020000040030CA
:01000100C836
:010003001EDE
:01000600C138
:00000001FF
