:020000040000FA
:060000005EEF03F01200A8
:020006001200E6
:0800080007EF00F01200DACF4F
:10001000E4FFE2CFDAFFE9CFE4FFEACFE4FFF6CF77
:10002000E4FFF7CFE4FFF5CFE4FFF3CFE4FFF4CF35
:10003000E4FFFACFE4FF00EE00F0140EE80403E35F
:10004000EECFE4FFFBD700EE14F0090EE80403E363
:10005000EECFE4FFFBD7E652F294DCD99ED8F4D879
:10006000DBD9E55200EE1CF0090EE80403E3E5CF0E
:10007000EDFFFBD700EE13F0140EE80403E3E5CF29
:10008000EDFFFBD7E5CFFAFFE5CFF4FFE5CFF3FFB8
:10009000E5CFF5FFE5CFF7FFE5CFF6FFE5CFEAFFC8
:1000A000E5CFE9FFE5CFDAFF1100D9CFE6FFE1CFD9
:1000B000D9FF0C0EE126D950020FE96EDACFEAFF24
:1000C000610EEE6E620EEE6E630EEE6E640EEE6EFE
:1000D000650EEE6E660EEE6E670EEE6E680EEE6EDE
:1000E000690EEE6EEE6A936A040E956E8A68C00E13
:1000F0008C6ED950020FE66E000EDA20E66EADD897
:10010000E552E552A60E086E096A61C00DF062C0A4
:100110000EF04EEC02F008C065F009C066F0176AF8
:10012000186A010E196EFA0E086E096A65C00DF0A4
:1001300066C00EF074EC02F006C01AF007C01BF0A7
:100140001C6A1BBE1C681A50175C146E1B50185892
:10015000156E1C501958166EEC0E1426FF0E152243
:10016000162214C067F015C068F056D99F0EE66ECF
:100170000CEC03F0E55268D80001606B83A402D058
:100180000001606BFBD70C0EE15C02E2E16AE55214
:10019000E16EE552E7CFD9FF120000016051146E05
:1001A000156A61C016F062C017F01606000E175AE5
:1001B00017501518E8AE02D0153404D01450165C50
:1001C0001550175807E360C0E6FFF9D8E552E81C60
:1001D0008A6E01D08A6800016051146E156A61C090
:1001E00016F062C017F01606000E175A16501418B3
:1001F00022E11FD00001605103E1636B646B12D0F8
:100200006051146E156A61C016F062C017F01606D0
:10021000000E175A1650141802E11750151802E173
:10022000636964696351641102E1602B01D0600766
:100230000AD01750151806E103D00001606B01D0F9
:10024000602B01D0602B120067C0E6FF68C0E6FF9C
:10025000F0EC02F0E552E5521200D9CFE6FFE1CF13
:10026000D9FF020EE126FD0EDBCFDEFFDBCFDDFF87
:10027000DECFE9FFDDCFEAFFEF500DE0DECFE9FF93
:10028000DDCFEAFFEF50E66E10D8E552DF2A010E0F
:1002900001E3DB2AEDD7020EE15C02E2E16AE552FE
:1002A000E16EE552E7CFD9FF1200D9CFE6FFE1CFEB
:1002B000D9FF030EE126610EF36EFE0EDBCFF4FFD5
:1002C000F350F45C09E3FE0EDB507A0805E3FE0E02
:1002D000DB509F0FDF6E02D01A0EDF6EDFCFE9FF1B
:1002E000EA6AE9BEEA68030EEA02F3CFEAFFE9022E
:1002F000F3CFE9FFF450EA26000EE9260F0EEA22BA
:10030000EF50E66E60C0E6FF6AD8E552E5520001A4
:10031000602BDFCFE9FFEA6AE9BEEA68030EEA0272
:10032000F3CFEAFFE902F3CFE9FFF450EA26000E2B
:10033000E9260F0EEA22010EE926000EEA22EF500E
:10034000E66E60C0E6FF4BD8E552E5520001602B37
:10035000DFCFE9FFEA6AE9BEEA68030EEA02F3CFFB
:10036000EAFFE902F3CFE9FFF450EA26000EE9269E
:100370000F0EEA22020EE926000EEA22EF50E66E88
:1003800060C0E6FF2CD8E552E5520001602BE66A1A
:1003900060C0E6FF24D8E552E5520001602B040E50
:1003A0006125616F000E6221626F030EE15C02E263
:1003B000E16AE552E16EE552E7CFD9FF1200D9CFED
:1003C000E6FFE1CFD9FFA69EA69CFE0EDB50A96EEC
:1003D000A680A85000D0E552E7CFD9FF1200D9CFB0
:1003E000E6FFE1CFD9FFA69EA69CFD0EDB50A86ECE
:1003F000FE0EDB50A96EA6840DD8550EA76EAA0E70
:10040000A76EA68209D8A6B2FED7A694E552E7CF7A
:10041000D9FF1200F29E1200F28E1200D9CFE6FF31
:10042000E1CFD9FF020EE126010EDF6EDB6A936A8F
:100430008A68050EE66E3EEC03F0E552400EDF5C86
:1004400004E1DE52010EDD6E04D0DF0402E1010E94
:10045000DB6A010EDB5004E1DF50E824DF6E03D0DD
:10046000DF407F0BDF6EDF1C8A6EE3D7020EE15C9C
:1004700002E2E16AE552E16EE552E7CFD9FF1200F0
:02048000120068
:0E04820002002C0700006000000005000000D2
:0C049000D8060000000F0000540000001F
:04049C00006A0EAE36
:1004A00057EF02F00D6C0E1EE86A0E22001E09AE18
:1004B0005FEF02F0086C091EE86A0922001E28ECB2
:1004C00003F009BE6FEF02F000AE000C086C091ECD
:1004D000E86A0922046C051EE86A0522000C00BEC9
:1004E00066EF02F00188FF0C09C013F008C012F09B
:1004F00008500D02F4CF07F0F3CF06F009500E02BA
:10050000F4CF09F0F3CF08F00D02F3500726F450B2
:100510000822E86A092212500E02F3500726F4500E
:100520000822E86A09220EAE9AEF02F01250085E25
:100530001350095A13AE000C0D50085E0E50095AA4
:02054000000CAD
:0E054200820EF66E040EF76E000EF86E0F01BC
:100550000900F550596F0900F5505A6F03E15967CA
:1005600001D03DD00900F550546F0900F550556F8A
:100570000900F550566F09000900F550E96E0900B1
:10058000F550EA6E090009000900F550576F09009F
:10059000F550586F09000900F6CF5BFFF7CF5CFFFD
:1005A000F8CF5DFF54CFF6FF55CFF7FF56CFF8FFDA
:1005B0000F01575302E1585307E00900F550EE6E62
:1005C0005707F8E25807F9D75BCFF6FF5CCFF7FF84
:1005D0005DCFF8FF0F015907000E5A5BBFD712001D
:1005E000D9CFE6FFDACFE6FFE1CFD9FFE2CFDAFFDE
:1005F000E652E652FC0EDBCFDEFFDBCFDDFF010E65
:10060000DB50D76EDF50D66EE552E552E552E5CFAE
:08061000DAFFE7CFD9FF120069
:08061800D9CFE6FFDACFE6FFBF
:10062000E1CFD9FFE2CFDAFFFD0EDB507F0BD56EB5
:10063000D76AD66AF294FD0EDBAE02D0F28A01D000
:10064000F29AD58EE552E5CFDAFFE7CFD9FF120057
:10065000056A046A100EE76ED8900836093604362B
:1006600005360D50045C0E50055805E30D50045E30
:0C0670000E50055A082AE72EF0D71200A1
:04067C00FF0EE3503A
:100680001D6E480E01D04C0EE76EE72EFED7E76ACE
:0C069000E72EFED71D2EF7D70000120049
:04069C00600EF36E8B
:1006A00000EE00F00F0E01D81200EA6002D0EE6AF0
:0C06B000FCD7F350E9601200EE6AFCD7A2
:0406BC001EEE00F03E
:1006C0002EEE00F0F86A019CA1EC02F003EC00F0C1
:0806D00055EC00F0FBD712000D
:0806D8001E281E3E2A141C22FC
:1006E000223E221C3E2A2A3E28281C2A0C3E083E76
:1006F000022E0220223E3E08163E02023E181E3EF8
:10070000201E1C221C3E28101E261E3E2816122AC1
:1007100024203E203E023E3C023C3C0C3C36083647
:0C07200030083E262A32000000000000D5
:04072C0000000000C9
:0107300000C8
:020000040030CA
:0100010008F6
:010003001EDE
:010006008178
:00000001FF
