:020000040000FA
:060000000EEF03F01200F8
:020006001200E6
:0600080014EF00F01200ED
:02000E000200EE
:100010008C060000600000000A00000038060000A6
:08002000000F00005400000075
:08002800DACFE4FFE2CFDAFFBA
:10003000E9CFE4FFEACFE4FFF6CFE4FFF7CFE4FF38
:10004000F5CFE4FFF3CFE4FFF4CFE4FFFACFE4FF12
:1000500000EE02F0020EE80403E3EECFE4FFFBD76C
:1000600000EE04F0020EE80403E3EECFE4FFFBD75A
:10007000E652F29460C0E6FF61C0E6FFBCD9E552EB
:10008000E552F3CF00F0F4CF01F0001C8A6E0001BE
:100090006051611106E06451601902E16551611916
:1000A00012E1665167110DE06851691105E164C004
:1000B00060F065C061F002D0606B616B681F691F02
:1000C00002D0606B616B73D8E55200EE05F0020E52
:1000D000E80403E3E5CFEDFFFBD700EE03F0020EEB
:1000E000E80403E3E5CFEDFFFBD7E5CFFAFFE5CF6B
:1000F000F4FFE5CFF3FFE5CFF5FFE5CFF7FFE5CF61
:10010000F6FFE5CFEAFFE5CFE9FFE5CFDAFF110023
:10011000D9CFE6FFE1CFD9FF060EE126D950020F75
:10012000E96EDACFEAFF680EEE6E690EEE6E7A0EB9
:10013000EE6EEE6A936A8A68D950020FE66E000E80
:10014000DA20E66E46D8E552E552190E0001626FDC
:10015000636BD00EE66EBBEC02F0E55228D80001CE
:10016000606B616B60C0E6FF61C0E6FF44D9E55299
:10017000E552F3CF04F0F4CF05F0041C8A6E140EA0
:10018000E66ED7EC02F0E552AA0E8A6E140EE66E09
:10019000D7EC02F0E552E6D7FFD7060EE15C02E2AB
:1001A000E16AE552E16EE552E7CFD9FF120062C085
:1001B00004F063C005F0FF0ED8800456000E05560B
:1001C00004C0E6FF05C0E6FF9FEC02F0E552E552F1
:1001D0001200D9CFE6FFE1CFD9FF020EE126FD0ED6
:1001E000DBCFDEFFDBCFDDFF330E8A6E140EE66E53
:1001F000D7EC02F0E552CC0E8A6E140EE66ED7EC08
:1002000002F0E552DECFE9FFDDCFEAFFEF500DE06F
:10021000DECFE9FFDDCFEAFFEF50E66E10D8E55202
:10022000DF2A010E01E3DB2AEDD7020EE15C02E2D8
:10023000E16AE552E16EE552E7CFD9FF1200D9CF6E
:10024000E6FFE1CFD9FF030EE126610EF36EFE0E4D
:10025000DBCFF4FFF350F45C09E3FE0EDB507A08C9
:1002600005E3FE0EDB509F0FDF6E02D01A0EDF6E2D
:10027000DFCFE9FFEA6AE9BEEA68030EEA02F3CFDC
:10028000EAFFE902F3CFE9FFF450EA26000EE9267F
:100290000F0EEA22EFCF04F0056A04BE056804C021
:1002A000E6FF05C0E6FF60C0E6FF61C0E6FFD0D80C
:1002B000E552E552E552E552DFCFE9FFEA6AE9BED1
:1002C000EA68030EEA02F3CFEAFFE902F3CFE9FF9F
:1002D000F450EA26000EE9260F0EEA22010EE92666
:1002E000000EEA22EFCF04F0056A04BE056804C0E0
:1002F000E6FF05C0E6FF60C0E6FF61C0E6FFA8D8E4
:10030000E552E552E552E552DFCFE9FFEA6AE9BE80
:10031000EA68030EEA02F3CFEAFFE902F3CFE9FF4E
:10032000F450EA26000EE9260F0EEA22020EE92614
:10033000000EEA22EFCF04F0056A04BE056804C08F
:10034000E6FF05C0E6FF60C0E6FF61C0E6FF80D8BB
:10035000E552E552E552E552000EE66EE66A60C0EF
:10036000E6FF61C0E6FF74D8E552E552E552E5527A
:10037000040E00016425646F000E6521656F030E95
:10038000E15C02E2E16AE552E16EE552E7CFD9FFB6
:100390001200D9CFE6FFE1CFD9FF020EE126010E10
:1003A000DF6EDB6A936A8A68050EE66EEEEC02F099
:1003B000E552400EDF5C04E1DE52010EDD6E04D03A
:1003C000DF0402E1010EDB6A010EDB5004E1DF50C5
:1003D000E824DF6E03D0DF407F0BDF6EDF1C8A6E08
:1003E000E3D7020EE15C02E2E16AE552E16EE5521A
:1003F000E7CFD9FF1200D9CFE6FFE1CFD9FF000147
:10040000685169110AE1FD0EDBCF60F0DB2AFE0EB8
:10041000DBCF61F001E3DB2A09D0FD0EDBCF60F01A
:10042000DB06FE0EDBCF61F001E2DB06A69EA69C9A
:10043000FD0EDB50A96EA680A850046E056A04C0AC
:10044000F3FF05C0F4FF00D0E552E7CFD9FF12005B
:10045000D9CFE6FFE1CFD9FFA69EA69CA684FD0ECC
:10046000DB50A96EAA6AFB0EDB50A86E16D8550E9B
:10047000A76EAA0EA76EA68212D8A1A8FED7A19831
:10048000FD0EDBCF60F0DB2AFE0EDBCF61F001E377
:10049000DB2AE552E7CFD9FF1200F29E12001200CC
:1004A0000E0EF66E000EF76E000EF86E0F010900CC
:1004B000F550596F0900F5505A6F03E1596701D0A3
:1004C0003DD00900F550546F0900F550556F0900F3
:1004D000F550566F09000900F550E96E0900F55016
:1004E000EA6E090009000900F550576F0900F55040
:1004F000586F09000900F6CF5BFFF7CF5CFFF8CF1C
:100500005DFF54CFF6FF55CFF7FF56CFF8FF0F0131
:10051000575302E1585307E00900F550EE6E5707B4
:10052000F8E25807F9D75BCFF6FF5CCFF7FF5DCF56
:0E053000F8FF0F015907000E5A5BBFD71200EB
:02053E00D9CF13
:10054000E6FFDACFE6FFE1CFD9FFE2CFDAFFE652EE
:10055000E652FC0EDBCFDEFFDBCFDDFF010EDB5012
:10056000D76EDF50D66EE552E552E552E5CFDAFFA1
:06057000E7CFD9FF1200E5
:0A057600D9CFE6FFDACFE6FFE1CFB0
:10058000D9FFE2CFDAFFFD0EDB507F0BD56ED76AC5
:10059000D66AF294FD0EDBAE02D0F28A01D0F29A56
:0E05A000D58EE552E5CFDAFFE7CFD9FF120086
:0205AE00FF0E3E
:1005B000E350076EEF0E01D0F30EE76EE72EDEEF8D
:1005C00002F00C0E066EE76AE72EE4EF02F0062E4C
:0C05D000E3EF02F0072EDCEF02F0120057
:0405DC00FF0EE350DB
:1005E000076E480E01D04C0EE76EE72EFED7E76A85
:0C05F000E72EFED7072EF7D70000120000
:0405FC00600EF36E2C
:1006000000EE00F00F0E01D81200EA6002D0EE6A90
:0C061000FCD7F350E9601200EE6AFCD742
:04061C001EEE00F0DE
:100620002EEE00F0F86A039C50EC02F003EC00F0B0
:0806300088EC00F0FBD712007A
:080638001E281E3E2A141C229C
:10064000223E221C3E2A2A3E28281C2A0C3E083E16
:10065000022E0220223E3E08163E02023E181E3E98
:10066000201E1C221C3E28101E261E3E2816122A62
:1006700024203E203E023E3C023C3C0C3C360836E8
:0C06800030083E262A3200000000000076
:04068C000000190051
:0606900000000100000063
:020000040030CA
:01000100C836
:010003001EDE
:01000600C138
:00000001FF
