:020000040000FA
:060000009DEF01F012006B
:0A00060001005E030000000100008D
:04001000AA00000042
:0C001400936A8A68560EE66E030EE66ED4
:1000200004D8E552E552FFD71200D9CFE6FFE1CF61
:10003000D9FF020EE126FD0EDBCFDEFFDBCFDDFFB9
:10004000DECFE9FFDDCFEAFFEF500DE0DECFE9FFC5
:10005000DDCFEAFFEF50E66E10D8E552DF2A010E41
:1000600001E3DB2AEDD7020EE15C02E2E16AE55230
:10007000E16EE552E7CFD9FF1200D9CFE6FFE1CF1D
:10008000D9FF020EE126FE0EDB509F0F026E036ABF
:1000900002BE036802C0DEFF03C0DDFFDECFE9FF62
:1000A000DDCFEAFF060EEA02F3CFEAFFE902F3CF63
:1000B000E9FFF450EA26000EE926010EEA22EECF0F
:1000C000E6FFEFCFE6FFA8C1E6FFA9C1E6FFA5D88E
:1000D000E552E552E552E552DECFE9FFDDCFEAFF1A
:1000E000060EEA02F3CFEAFFE902F3CFE9FFF4508C
:1000F000EA26000EE926010EEA22020EE926000E8B
:10010000EA22EECFE6FFEFCFE6FFA8C1E6FFA9C1E6
:10011000E6FF83D8E552E552E552E552DECFE9FF2E
:10012000DDCFEAFF060EEA02F3CFEAFFE902F3CFE2
:10013000E9FFF450EA26000EE926010EEA22040E39
:10014000E926000EEA22EECFE6FFEFCFE6FFA8C1D8
:10015000E6FFA9C1E6FF61D8E552E552E552E55256
:10016000000EE66EE66AA8C1E6FFA9C1E6FF55D813
:10017000E552E552E552E552020EE15C02E2E16A27
:10018000E552E16EE552E7CFD9FF1200D9CFE6FF85
:10019000E1CFD9FF020EE126010EDF6EDB6A936A22
:1001A0008A68050EE66E7DEC01F0E552400EDF5CDC
:1001B00004E1DE52010EDD6E04D0DF0402E1010E27
:1001C000DB6A010EDB5004E1DF50E824DF6E03D070
:1001D000DF407F0BDF6EDF1C8A6EE3D7020EE15C2F
:1001E00002E2E16AE552E16EE552E7CFD9FF120083
:1001F000D9CFE6FFE1CFD9FFA69EFD0EDB50A96E59
:10020000A680A850026E036A02C0F3FF03C0F4FF89
:1002100000D0E552E7CFD9FF1200D9CFE6FFE1CFFA
:10022000D9FFA69EA684FD0EDB50A96EFB0EDB5007
:10023000A86E550EA76EAA0EA76EA682A1A8FED71D
:10024000A198FD0EDBCFA8F1DB2AFE0EDBCFA9F1D2
:0C02500001E3DB2AE552E7CFD9FF1200E2
:04025C00060EF66E26
:10026000000EF76E000EF86E01010900F550AF6F39
:100270000900F550B06F03E1AF6701D03DD0090030
:10028000F550AA6F0900F550AB6F0900F550AC6F3F
:1002900009000900F550E96E0900F550EA6E090001
:1002A00009000900F550AD6F0900F550AE6F090067
:1002B0000900F6CFB1F1F7CFB2F1F8CFB3F1AAC18F
:1002C000F6FFABC1F7FFACC1F8FF0101AD5302E18E
:1002D000AE5307E00900F550EE6EAD07F8E2AE0749
:1002E000F9D7B1C1F6FFB2C1F7FFB3C1F8FF010101
:0A02F000AF07000EB05BBFD712008D
:0602FA00FF0EE350046E4C
:10030000480E01D04C0EE76EE72EFED7E76AE72EC7
:0A031000FED7042EF7D700001200FC
:06031A00600EF36E00EE20
:1003200000F00F0E01D81200EA6002D0EE6AFCD78E
:0A033000F350E9601200EE6AFCD7FA
:06033A001EEE00F02EEEA5
:1003400000F0F86A019C2EEC01F0AEEC01F00AEC32
:0603500000F0FBD71200D3
:0603560048656C6C6F00AD
:02035C0012008D
:02035E001E007F
:1003600028001E003E002A0014001C00220022006B
:100370003E0022001C003E002A002A003E00280009
:1003800028001C002A000C003E0008003E0002006D
:100390002E000200200022003E003E000800160051
:1003A0003E00020002003E0018001E003E00200039
:1003B0001E001C0022001C003E00280010001E0031
:1003C00026001E003E002800160012002A0024000D
:1003D00020003E0020003E0002003E003C000200E3
:1003E0003C003C000C003C003600080036003000A9
:1003F00008003E0026002A00320000000000000035
:0804000000003A0000000000BA
:020000040030CA
:01000100C836
:010003001EDE
:01000600C138
:00000001FF
